:020000020000FC
:1000000000E011E02FEF30E045E050E0AFE12AB929
:100010002BB92DB931B922B9049BFECF0E946500DE
:100020000E9457000E94A700059909C00A1721F1F4
:100030000E9452000E9457000E94A700F5CF069927
:1000400009C0301711F10E9454000E9457000E940D
:10005000A700EACF049907C00E944E000E945700F3
:100060000E94A700E1CF0799DFCF079BFECF0E9438
:10007000A7000E946F00D8CF0E944E000E94570038
:100080000E945B000E94A700CFCF0E9450000E94F8
:1000900057000E945B000E94A700C6CF032F08955F
:1000A0000A2F0895010F0895020F88940895B02F24
:1000B000B095BBB9089592E02EB90E94A7003EB951
:1000C0000E94A7009A95C1F7089550B1052F089591
:1000D00013954A9509F0089545E011E008950E94AE
:1000E0004E000E9457005F9805990EC0059BFECFF9
:1000F0000A17D1F00E9452000E9457005F980E9498
:10010000A7000599F5CF18C006990EC0069BFECF33
:10011000301751F00E9454000E9457005F980E94CF
:10012000A7000699F5CF08C05F98049908C00E94FF
:100130004E000E9457005F985F980E94A7000799A1
:10014000D3CF079BFECF5F9A0E94A70008957FEF51
:100150006FEF5AE000005A95E9F76A95D1F77A9562
:04016000B9F708954E
:00000001FF
